{
  "address": "0x23B4df0d68827C1cFa1654D9473117139B3658CB",
  "abi": [
    {
      "inputs": [
        {
          "internalType": "address",
          "name": "_owner",
          "type": "address"
        }
      ],
      "stateMutability": "nonpayable",
      "type": "constructor"
    },
    {
      "inputs": [],
      "name": "AccessDenied",
      "type": "error"
    },
    {
      "inputs": [],
      "name": "AlreadyRevoked",
      "type": "error"
    },
    {
      "inputs": [],
      "name": "Irrevocable",
      "type": "error"
    },
    {
      "inputs": [],
      "name": "NotFound",
      "type": "error"
    },
    {
      "anonymous": false,
      "inputs": [
        {
          "indexed": true,
          "internalType": "address",
          "name": "attester",
          "type": "address"
        },
        {
          "indexed": true,
          "internalType": "string",
          "name": "recipient",
          "type": "string"
        },
        {
          "indexed": false,
          "internalType": "uint256",
          "name": "uid",
          "type": "uint256"
        }
      ],
      "name": "Attested",
      "type": "event"
    },
    {
      "anonymous": false,
      "inputs": [
        {
          "indexed": true,
          "internalType": "string",
          "name": "recipient",
          "type": "string"
        },
        {
          "indexed": true,
          "internalType": "address",
          "name": "attester",
          "type": "address"
        },
        {
          "indexed": false,
          "internalType": "uint256",
          "name": "uid",
          "type": "uint256"
        }
      ],
      "name": "Revoked",
      "type": "event"
    },
    {
      "inputs": [
        {
          "internalType": "string",
          "name": "recipient",
          "type": "string"
        },
        {
          "internalType": "bool",
          "name": "revocable",
          "type": "bool"
        },
        {
          "internalType": "string",
          "name": "data",
          "type": "string"
        }
      ],
      "name": "attest",
      "outputs": [
        {
          "internalType": "uint256",
          "name": "",
          "type": "uint256"
        }
      ],
      "stateMutability": "nonpayable",
      "type": "function"
    },
    {
      "inputs": [
        {
          "internalType": "address",
          "name": "attester",
          "type": "address"
        }
      ],
      "name": "attestationsByAttester",
      "outputs": [
        {
          "components": [
            {
              "internalType": "uint256",
              "name": "uid",
              "type": "uint256"
            },
            {
              "internalType": "uint256",
              "name": "time",
              "type": "uint256"
            },
            {
              "internalType": "uint256",
              "name": "revocationTime",
              "type": "uint256"
            },
            {
              "internalType": "string",
              "name": "recipient",
              "type": "string"
            },
            {
              "internalType": "address",
              "name": "attester",
              "type": "address"
            },
            {
              "internalType": "bool",
              "name": "revocable",
              "type": "bool"
            },
            {
              "internalType": "string",
              "name": "data",
              "type": "string"
            }
          ],
          "internalType": "struct YourContract.Attestation[]",
          "name": "",
          "type": "tuple[]"
        }
      ],
      "stateMutability": "view",
      "type": "function"
    },
    {
      "inputs": [
        {
          "internalType": "string",
          "name": "recipient",
          "type": "string"
        }
      ],
      "name": "attestationsByRecipient",
      "outputs": [
        {
          "components": [
            {
              "internalType": "uint256",
              "name": "uid",
              "type": "uint256"
            },
            {
              "internalType": "uint256",
              "name": "time",
              "type": "uint256"
            },
            {
              "internalType": "uint256",
              "name": "revocationTime",
              "type": "uint256"
            },
            {
              "internalType": "string",
              "name": "recipient",
              "type": "string"
            },
            {
              "internalType": "address",
              "name": "attester",
              "type": "address"
            },
            {
              "internalType": "bool",
              "name": "revocable",
              "type": "bool"
            },
            {
              "internalType": "string",
              "name": "data",
              "type": "string"
            }
          ],
          "internalType": "struct YourContract.Attestation[]",
          "name": "",
          "type": "tuple[]"
        }
      ],
      "stateMutability": "view",
      "type": "function"
    },
    {
      "inputs": [
        {
          "internalType": "uint256",
          "name": "uid",
          "type": "uint256"
        }
      ],
      "name": "getAttestation",
      "outputs": [
        {
          "components": [
            {
              "internalType": "uint256",
              "name": "uid",
              "type": "uint256"
            },
            {
              "internalType": "uint256",
              "name": "time",
              "type": "uint256"
            },
            {
              "internalType": "uint256",
              "name": "revocationTime",
              "type": "uint256"
            },
            {
              "internalType": "string",
              "name": "recipient",
              "type": "string"
            },
            {
              "internalType": "address",
              "name": "attester",
              "type": "address"
            },
            {
              "internalType": "bool",
              "name": "revocable",
              "type": "bool"
            },
            {
              "internalType": "string",
              "name": "data",
              "type": "string"
            }
          ],
          "internalType": "struct YourContract.Attestation",
          "name": "",
          "type": "tuple"
        }
      ],
      "stateMutability": "view",
      "type": "function"
    },
    {
      "inputs": [],
      "name": "owner",
      "outputs": [
        {
          "internalType": "address",
          "name": "",
          "type": "address"
        }
      ],
      "stateMutability": "view",
      "type": "function"
    },
    {
      "inputs": [
        {
          "internalType": "uint256",
          "name": "uid",
          "type": "uint256"
        }
      ],
      "name": "revoke",
      "outputs": [],
      "stateMutability": "nonpayable",
      "type": "function"
    }
  ],
  "transactionHash": "0xa7bc1fe7797ef2276f7a62e3b99505f7930a479bfd7aecc792e6d9acb0112482",
  "args": [
    "0xAd8ac10dc84B365CC9c022B3BB2d194869301B13"
  ],
  "numDeployments": 2,
  "solcInputHash": "68cf3f0bfae24db027204ae8a3443261",
  "bytecode": "0x60a0604052600160005534801561001557600080fd5b506040516110e13803806110e183398101604081905261003491610045565b6001600160a01b0316608052610075565b60006020828403121561005757600080fd5b81516001600160a01b038116811461006e57600080fd5b9392505050565b60805161105261008f600039600060aa01526110526000f3fe608060405234801561001057600080fd5b50600436106100625760003560e01c806320c5429b1461006757806329be4db21461007c5780638da5cb5b146100a557806393ea0043146100e4578063ad6aebd814610104578063fd5bc69d14610125575b600080fd5b61007a610075366004610af4565b610138565b005b61008f61008a366004610af4565b6101ee565b60405161009c9190610bd0565b60405180910390f35b6100cc7f000000000000000000000000000000000000000000000000000000000000000081565b6040516001600160a01b03909116815260200161009c565b6100f76100f2366004610bea565b6103a9565b60405161009c9190610c13565b610117610112366004610d1a565b610646565b60405190815260200161009c565b6100f7610133366004610dc5565b61079f565b600081815260016020526040812080549091036101685760405163c5723b5160e01b815260040160405180910390fd5b60048101546001600160a01b0316331461019557604051634ca8886760e01b815260040160405180910390fd5b6002810154156101b85760405163905e710760e01b815260040160405180910390fd5b6004810154600160a01b900460ff166101e45760405163157bd4c360e01b815260040160405180910390fd5b4260029091015550565b6101f6610aac565b6000548211156102195760405163c5723b5160e01b815260040160405180910390fd5b600160008381526020019081526020016000206040518060e001604052908160008201548152602001600182015481526020016002820154815260200160038201805461026590610e02565b80601f016020809104026020016040519081016040528092919081815260200182805461029190610e02565b80156102de5780601f106102b3576101008083540402835291602001916102de565b820191906000526020600020905b8154815290600101906020018083116102c157829003601f168201915b505050918352505060048201546001600160a01b0381166020830152600160a01b900460ff161515604082015260058201805460609092019161032090610e02565b80601f016020809104026020016040519081016040528092919081815260200182805461034c90610e02565b80156103995780601f1061036e57610100808354040283529160200191610399565b820191906000526020600020905b81548152906001019060200180831161037c57829003601f168201915b5050505050815250509050919050565b6060600060015b6000548110156103f4576000818152600160205260409020600401546001600160a01b038086169116036103ec57816103e881610e3c565b9250505b6001016103b0565b5060008167ffffffffffffffff81111561041057610410610c77565b60405190808252806020026020018201604052801561044957816020015b610436610aac565b81526020019060019003908161042e5790505b509050600060015b60005481101561063c576000818152600160205260409020600401546001600160a01b0380881691160361063457600160008281526020019081526020016000206040518060e00160405290816000820154815260200160018201548152602001600282015481526020016003820180546104cb90610e02565b80601f01602080910402602001604051908101604052809291908181526020018280546104f790610e02565b80156105445780601f1061051957610100808354040283529160200191610544565b820191906000526020600020905b81548152906001019060200180831161052757829003601f168201915b505050918352505060048201546001600160a01b0381166020830152600160a01b900460ff161515604082015260058201805460609092019161058690610e02565b80601f01602080910402602001604051908101604052809291908181526020018280546105b290610e02565b80156105ff5780601f106105d4576101008083540402835291602001916105ff565b820191906000526020600020905b8154815290600101906020018083116105e257829003601f168201915b50505050508152505083838151811061061a5761061a610e63565b6020026020010181905250818061063090610e3c565b9250505b600101610451565b5090949350505050565b600080548190818061065783610e3c565b919050559050610665610aac565b81815233608082015260608101879052604080516020601f8701819004810282018101909252858152908690869081908401838280828437600092018290525060c0860194909452505042602080850191825289151560a08601528584526001908190526040938490208551815591519082015591830151600283015550606082015182919060038201906106fa9082610eca565b50608082015160048201805460a08501511515600160a01b026001600160a81b03199091166001600160a01b039093169290921791909117905560c082015160058201906107489082610eca565b505060405161075991508890610f8a565b6040519081900381208382529033907fb37102117f72d4f80ea90641358393efa0bea2f61fa4946f725911453946f5579060200160405180910390a35095945050505050565b6060600060015b60005481101561082757836040516020016107c19190610f8a565b60408051601f1981840301815282825280516020918201206000858152600183529290922091926107f6926003019101610fa6565b604051602081830303815290604052805190602001200361081f578161081b81610e3c565b9250505b6001016107a6565b5060008167ffffffffffffffff81111561084357610843610c77565b60405190808252806020026020018201604052801561087c57816020015b610869610aac565b8152602001906001900390816108615790505b509050600060015b60005481101561063c578560405160200161089f9190610f8a565b60408051601f1981840301815282825280516020918201206000858152600183529290922091926108d4926003019101610fa6565b6040516020818303038152906040528051906020012003610aa457600160008281526020019081526020016000206040518060e001604052908160008201548152602001600182015481526020016002820154815260200160038201805461093b90610e02565b80601f016020809104026020016040519081016040528092919081815260200182805461096790610e02565b80156109b45780601f10610989576101008083540402835291602001916109b4565b820191906000526020600020905b81548152906001019060200180831161099757829003601f168201915b505050918352505060048201546001600160a01b0381166020830152600160a01b900460ff16151560408201526005820180546060909201916109f690610e02565b80601f0160208091040260200160405190810160405280929190818152602001828054610a2290610e02565b8015610a6f5780601f10610a4457610100808354040283529160200191610a6f565b820191906000526020600020905b815481529060010190602001808311610a5257829003601f168201915b505050505081525050838381518110610a8a57610a8a610e63565b60200260200101819052508180610aa090610e3c565b9250505b600101610884565b6040518060e001604052806000815260200160008152602001600081526020016060815260200160006001600160a01b03168152602001600015158152602001606081525090565b600060208284031215610b0657600080fd5b5035919050565b60005b83811015610b28578181015183820152602001610b10565b50506000910152565b60008151808452610b49816020860160208601610b0d565b601f01601f19169290920160200192915050565b8051825260208101516020830152604081015160408301526000606082015160e06060850152610b9060e0850182610b31565b905060018060a01b03608084015116608085015260a0830151151560a085015260c083015184820360c0860152610bc78282610b31565b95945050505050565b602081526000610be36020830184610b5d565b9392505050565b600060208284031215610bfc57600080fd5b81356001600160a01b0381168114610be357600080fd5b600060208083016020845280855180835260408601915060408160051b87010192506020870160005b82811015610c6a57603f19888603018452610c58858351610b5d565b94509285019290850190600101610c3c565b5092979650505050505050565b634e487b7160e01b600052604160045260246000fd5b600082601f830112610c9e57600080fd5b813567ffffffffffffffff80821115610cb957610cb9610c77565b604051601f8301601f19908116603f01168101908282118183101715610ce157610ce1610c77565b81604052838152866020858801011115610cfa57600080fd5b836020870160208301376000602085830101528094505050505092915050565b60008060008060608587031215610d3057600080fd5b843567ffffffffffffffff80821115610d4857600080fd5b610d5488838901610c8d565b9550602087013591508115158214610d6b57600080fd5b90935060408601359080821115610d8157600080fd5b818701915087601f830112610d9557600080fd5b813581811115610da457600080fd5b886020828501011115610db657600080fd5b95989497505060200194505050565b600060208284031215610dd757600080fd5b813567ffffffffffffffff811115610dee57600080fd5b610dfa84828501610c8d565b949350505050565b600181811c90821680610e1657607f821691505b602082108103610e3657634e487b7160e01b600052602260045260246000fd5b50919050565b600060018201610e5c57634e487b7160e01b600052601160045260246000fd5b5060010190565b634e487b7160e01b600052603260045260246000fd5b601f821115610ec5576000816000526020600020601f850160051c81016020861015610ea25750805b601f850160051c820191505b81811015610ec157828155600101610eae565b5050505b505050565b815167ffffffffffffffff811115610ee457610ee4610c77565b610ef881610ef28454610e02565b84610e79565b602080601f831160018114610f2d5760008415610f155750858301515b600019600386901b1c1916600185901b178555610ec1565b600085815260208120601f198616915b82811015610f5c57888601518255948401946001909101908401610f3d565b5085821015610f7a5787850151600019600388901b60f8161c191681555b5050505050600190811b01905550565b60008251610f9c818460208701610b0d565b9190910192915050565b6000808354610fb481610e02565b60018281168015610fcc5760018114610fe157611010565b60ff1984168752821515830287019450611010565b8760005260208060002060005b858110156110075781548a820152908401908201610fee565b50505082870194505b5092969550505050505056fea264697066735822122023bae392b03cb19ae3b7471bba82989988e6a09ba325a0ca66efba5d87bb94b264736f6c63430008170033",
  "devdoc": {
    "events": {
      "Attested(address,string,uint256)": {
        "params": {
          "attester": "The attesting account.",
          "recipient": "The recipient of the attestation.",
          "uid": "The UID the revoked attestation."
        }
      },
      "Revoked(string,address,uint256)": {
        "params": {
          "attester": "The attesting account.",
          "recipient": "The recipient of the attestation.",
          "uid": "The UID the revoked attestation."
        }
      }
    },
    "kind": "dev",
    "methods": {
      "attest(string,bool,string)": {
        "params": {
          "data": "The custom attestation data.",
          "recipient": "The recipient of the attestation.",
          "revocable": "Whether the attestation is revocable."
        },
        "returns": {
          "_0": "The UID of the new attestation."
        }
      },
      "constructor": {
        "details": "Creates a new SolAttest instance."
      },
      "getAttestation(uint256)": {
        "params": {
          "uid": "The UID of the attestation to retrieve."
        },
        "returns": {
          "_0": "The attestation data members."
        }
      }
    },
    "title": "SolAttest",
    "version": 1
  },
  "userdoc": {
    "events": {
      "Attested(address,string,uint256)": {
        "notice": "Emitted when an attestation has been made."
      },
      "Revoked(string,address,uint256)": {
        "notice": "Emitted when an attestation has been revoked."
      }
    },
    "kind": "user",
    "methods": {
      "attest(string,bool,string)": {
        "notice": "Attests to a specific schema."
      },
      "getAttestation(uint256)": {
        "notice": "Returns an existing attestation by UID."
      }
    },
    "notice": "The Solana Attestations protocol.",
    "version": 1
  },
  "storageLayout": {
    "storage": [
      {
        "astId": 54,
        "contract": "contracts/YourContract.sol:YourContract",
        "label": "lastUid",
        "offset": 0,
        "slot": "0",
        "type": "t_uint256"
      },
      {
        "astId": 59,
        "contract": "contracts/YourContract.sol:YourContract",
        "label": "_db",
        "offset": 0,
        "slot": "1",
        "type": "t_mapping(t_uint256,t_struct(Attestation)51_storage)"
      }
    ],
    "types": {
      "t_address": {
        "encoding": "inplace",
        "label": "address",
        "numberOfBytes": "20"
      },
      "t_bool": {
        "encoding": "inplace",
        "label": "bool",
        "numberOfBytes": "1"
      },
      "t_mapping(t_uint256,t_struct(Attestation)51_storage)": {
        "encoding": "mapping",
        "key": "t_uint256",
        "label": "mapping(uint256 => struct YourContract.Attestation)",
        "numberOfBytes": "32",
        "value": "t_struct(Attestation)51_storage"
      },
      "t_string_storage": {
        "encoding": "bytes",
        "label": "string",
        "numberOfBytes": "32"
      },
      "t_struct(Attestation)51_storage": {
        "encoding": "inplace",
        "label": "struct YourContract.Attestation",
        "members": [
          {
            "astId": 38,
            "contract": "contracts/YourContract.sol:YourContract",
            "label": "uid",
            "offset": 0,
            "slot": "0",
            "type": "t_uint256"
          },
          {
            "astId": 40,
            "contract": "contracts/YourContract.sol:YourContract",
            "label": "time",
            "offset": 0,
            "slot": "1",
            "type": "t_uint256"
          },
          {
            "astId": 42,
            "contract": "contracts/YourContract.sol:YourContract",
            "label": "revocationTime",
            "offset": 0,
            "slot": "2",
            "type": "t_uint256"
          },
          {
            "astId": 44,
            "contract": "contracts/YourContract.sol:YourContract",
            "label": "recipient",
            "offset": 0,
            "slot": "3",
            "type": "t_string_storage"
          },
          {
            "astId": 46,
            "contract": "contracts/YourContract.sol:YourContract",
            "label": "attester",
            "offset": 0,
            "slot": "4",
            "type": "t_address"
          },
          {
            "astId": 48,
            "contract": "contracts/YourContract.sol:YourContract",
            "label": "revocable",
            "offset": 20,
            "slot": "4",
            "type": "t_bool"
          },
          {
            "astId": 50,
            "contract": "contracts/YourContract.sol:YourContract",
            "label": "data",
            "offset": 0,
            "slot": "5",
            "type": "t_string_storage"
          }
        ],
        "numberOfBytes": "192"
      },
      "t_uint256": {
        "encoding": "inplace",
        "label": "uint256",
        "numberOfBytes": "32"
      }
    }
  }
}