{
  "address": "0xE788982322f8816E9Cd6EAdB2114ac25eC033B70",
  "abi": [
    {
      "inputs": [
        {
          "internalType": "address",
          "name": "_owner",
          "type": "address"
        }
      ],
      "stateMutability": "nonpayable",
      "type": "constructor"
    },
    {
      "inputs": [],
      "name": "AccessDenied",
      "type": "error"
    },
    {
      "inputs": [],
      "name": "AlreadyRevoked",
      "type": "error"
    },
    {
      "inputs": [],
      "name": "Irrevocable",
      "type": "error"
    },
    {
      "inputs": [],
      "name": "NotFound",
      "type": "error"
    },
    {
      "anonymous": false,
      "inputs": [
        {
          "indexed": true,
          "internalType": "address",
          "name": "attester",
          "type": "address"
        },
        {
          "indexed": true,
          "internalType": "string",
          "name": "recipient",
          "type": "string"
        },
        {
          "indexed": false,
          "internalType": "uint256",
          "name": "uid",
          "type": "uint256"
        }
      ],
      "name": "Attested",
      "type": "event"
    },
    {
      "anonymous": false,
      "inputs": [
        {
          "indexed": true,
          "internalType": "string",
          "name": "recipient",
          "type": "string"
        },
        {
          "indexed": true,
          "internalType": "address",
          "name": "attester",
          "type": "address"
        },
        {
          "indexed": false,
          "internalType": "uint256",
          "name": "uid",
          "type": "uint256"
        }
      ],
      "name": "Revoked",
      "type": "event"
    },
    {
      "inputs": [
        {
          "internalType": "string",
          "name": "recipient",
          "type": "string"
        },
        {
          "internalType": "bool",
          "name": "revocable",
          "type": "bool"
        },
        {
          "internalType": "string",
          "name": "data",
          "type": "string"
        }
      ],
      "name": "attest",
      "outputs": [
        {
          "internalType": "uint256",
          "name": "",
          "type": "uint256"
        }
      ],
      "stateMutability": "nonpayable",
      "type": "function"
    },
    {
      "inputs": [
        {
          "internalType": "string",
          "name": "recipient",
          "type": "string"
        },
        {
          "internalType": "bool",
          "name": "revocable",
          "type": "bool"
        },
        {
          "internalType": "string",
          "name": "data",
          "type": "string"
        },
        {
          "internalType": "address",
          "name": "tokenAddress",
          "type": "address"
        },
        {
          "internalType": "uint256",
          "name": "tokenAmount",
          "type": "uint256"
        },
        {
          "internalType": "address payable",
          "name": "destinationAddress",
          "type": "address"
        }
      ],
      "name": "attestWithToken",
      "outputs": [
        {
          "internalType": "uint256",
          "name": "",
          "type": "uint256"
        }
      ],
      "stateMutability": "nonpayable",
      "type": "function"
    },
    {
      "inputs": [
        {
          "internalType": "address",
          "name": "attester",
          "type": "address"
        }
      ],
      "name": "attestationsByAttester",
      "outputs": [
        {
          "components": [
            {
              "internalType": "uint256",
              "name": "uid",
              "type": "uint256"
            },
            {
              "internalType": "uint256",
              "name": "time",
              "type": "uint256"
            },
            {
              "internalType": "uint256",
              "name": "revocationTime",
              "type": "uint256"
            },
            {
              "internalType": "string",
              "name": "recipient",
              "type": "string"
            },
            {
              "internalType": "address",
              "name": "attester",
              "type": "address"
            },
            {
              "internalType": "bool",
              "name": "revocable",
              "type": "bool"
            },
            {
              "internalType": "string",
              "name": "data",
              "type": "string"
            }
          ],
          "internalType": "struct YourContract.Attestation[]",
          "name": "",
          "type": "tuple[]"
        }
      ],
      "stateMutability": "view",
      "type": "function"
    },
    {
      "inputs": [
        {
          "internalType": "string",
          "name": "recipient",
          "type": "string"
        }
      ],
      "name": "attestationsByRecipient",
      "outputs": [
        {
          "components": [
            {
              "internalType": "uint256",
              "name": "uid",
              "type": "uint256"
            },
            {
              "internalType": "uint256",
              "name": "time",
              "type": "uint256"
            },
            {
              "internalType": "uint256",
              "name": "revocationTime",
              "type": "uint256"
            },
            {
              "internalType": "string",
              "name": "recipient",
              "type": "string"
            },
            {
              "internalType": "address",
              "name": "attester",
              "type": "address"
            },
            {
              "internalType": "bool",
              "name": "revocable",
              "type": "bool"
            },
            {
              "internalType": "string",
              "name": "data",
              "type": "string"
            }
          ],
          "internalType": "struct YourContract.Attestation[]",
          "name": "",
          "type": "tuple[]"
        }
      ],
      "stateMutability": "view",
      "type": "function"
    },
    {
      "inputs": [
        {
          "internalType": "uint256",
          "name": "uid",
          "type": "uint256"
        }
      ],
      "name": "getAttestation",
      "outputs": [
        {
          "components": [
            {
              "internalType": "uint256",
              "name": "uid",
              "type": "uint256"
            },
            {
              "internalType": "uint256",
              "name": "time",
              "type": "uint256"
            },
            {
              "internalType": "uint256",
              "name": "revocationTime",
              "type": "uint256"
            },
            {
              "internalType": "string",
              "name": "recipient",
              "type": "string"
            },
            {
              "internalType": "address",
              "name": "attester",
              "type": "address"
            },
            {
              "internalType": "bool",
              "name": "revocable",
              "type": "bool"
            },
            {
              "internalType": "string",
              "name": "data",
              "type": "string"
            }
          ],
          "internalType": "struct YourContract.Attestation",
          "name": "",
          "type": "tuple"
        }
      ],
      "stateMutability": "view",
      "type": "function"
    },
    {
      "inputs": [],
      "name": "owner",
      "outputs": [
        {
          "internalType": "address",
          "name": "",
          "type": "address"
        }
      ],
      "stateMutability": "view",
      "type": "function"
    },
    {
      "inputs": [
        {
          "internalType": "uint256",
          "name": "uid",
          "type": "uint256"
        }
      ],
      "name": "revoke",
      "outputs": [],
      "stateMutability": "nonpayable",
      "type": "function"
    }
  ],
  "transactionHash": "0xe476822e5c73a20b0617cfe0aaf91a9e86eb338b6cea2611b42391a503714da7",
  "args": [
    "0xAd8ac10dc84B365CC9c022B3BB2d194869301B13"
  ],
  "numDeployments": 1,
  "solcInputHash": "e722a926c99345f5a6773f4941cf87b7",
  "bytecode": "0x60a0604052600160005534801561001557600080fd5b5060405161142938038061142983398101604081905261003491610045565b6001600160a01b0316608052610075565b60006020828403121561005757600080fd5b81516001600160a01b038116811461006e57600080fd5b9392505050565b60805161139a61008f600039600060e2015261139a6000f3fe608060405234801561001057600080fd5b506004361061007d5760003560e01c80638da5cb5b1161005b5780638da5cb5b146100dd57806393ea00431461011c578063ad6aebd81461013c578063fd5bc69d1461014f57600080fd5b806306e66eac1461008257806320c5429b146100a857806329be4db2146100bd575b600080fd5b610095610090366004610e4f565b610162565b6040519081526020015b60405180910390f35b6100bb6100b6366004610efe565b610381565b005b6100d06100cb366004610efe565b610437565b60405161009f9190610fda565b6101047f000000000000000000000000000000000000000000000000000000000000000081565b6040516001600160a01b03909116815260200161009f565b61012f61012a366004610ff4565b6105f2565b60405161009f9190611011565b61009561014a366004611075565b61088f565b61012f61015d3660046110f0565b6109e8565b6040516323b872dd60e01b81523360048201526001600160a01b03828116602483015260448201849052600091908516906323b872dd906064016020604051808303816000875af11580156101bb573d6000803e3d6000fd5b505050506040513d601f19601f820116820180604052508101906101df919061112d565b6102275760405162461bcd60e51b8152602060048201526015602482015274151bdad95b881d1c985b9cd9995c8819985a5b1959605a1b604482015260640160405180910390fd5b6000805481806102368361114a565b919050559050610244610cf5565b818152336080820152606081018a9052604080516020601f8a01819004810282018101909252888152908990899081908401838280828437600092018290525060c086019490945250504260208085019182528c151560a08601528584526001908190526040938490208551815591519082015591830151600283015550606082015182919060038201906102d990826111fc565b50608082015160048201805460a08501511515600160a01b026001600160a81b03199091166001600160a01b039093169290921791909117905560c0820151600582019061032790826111fc565b505060405161033891508b906112bc565b6040519081900381208382529033907fb37102117f72d4f80ea90641358393efa0bea2f61fa4946f725911453946f5579060200160405180910390a35098975050505050505050565b600081815260016020526040812080549091036103b15760405163c5723b5160e01b815260040160405180910390fd5b60048101546001600160a01b031633146103de57604051634ca8886760e01b815260040160405180910390fd5b6002810154156104015760405163905e710760e01b815260040160405180910390fd5b6004810154600160a01b900460ff1661042d5760405163157bd4c360e01b815260040160405180910390fd5b4260029091015550565b61043f610cf5565b6000548211156104625760405163c5723b5160e01b815260040160405180910390fd5b600160008381526020019081526020016000206040518060e00160405290816000820154815260200160018201548152602001600282015481526020016003820180546104ae90611171565b80601f01602080910402602001604051908101604052809291908181526020018280546104da90611171565b80156105275780601f106104fc57610100808354040283529160200191610527565b820191906000526020600020905b81548152906001019060200180831161050a57829003601f168201915b505050918352505060048201546001600160a01b0381166020830152600160a01b900460ff161515604082015260058201805460609092019161056990611171565b80601f016020809104026020016040519081016040528092919081815260200182805461059590611171565b80156105e25780601f106105b7576101008083540402835291602001916105e2565b820191906000526020600020905b8154815290600101906020018083116105c557829003601f168201915b5050505050815250509050919050565b6060600060015b60005481101561063d576000818152600160205260409020600401546001600160a01b0380861691160361063557816106318161114a565b9250505b6001016105f9565b5060008167ffffffffffffffff81111561065957610659610d3d565b60405190808252806020026020018201604052801561069257816020015b61067f610cf5565b8152602001906001900390816106775790505b509050600060015b600054811015610885576000818152600160205260409020600401546001600160a01b0380881691160361087d57600160008281526020019081526020016000206040518060e001604052908160008201548152602001600182015481526020016002820154815260200160038201805461071490611171565b80601f016020809104026020016040519081016040528092919081815260200182805461074090611171565b801561078d5780601f106107625761010080835404028352916020019161078d565b820191906000526020600020905b81548152906001019060200180831161077057829003601f168201915b505050918352505060048201546001600160a01b0381166020830152600160a01b900460ff16151560408201526005820180546060909201916107cf90611171565b80601f01602080910402602001604051908101604052809291908181526020018280546107fb90611171565b80156108485780601f1061081d57610100808354040283529160200191610848565b820191906000526020600020905b81548152906001019060200180831161082b57829003601f168201915b505050505081525050838381518110610863576108636112d8565b602002602001018190525081806108799061114a565b9250505b60010161069a565b5090949350505050565b60008054819081806108a08361114a565b9190505590506108ae610cf5565b81815233608082015260608101879052604080516020601f8701819004810282018101909252858152908690869081908401838280828437600092018290525060c0860194909452505042602080850191825289151560a086015285845260019081905260409384902085518155915190820155918301516002830155506060820151829190600382019061094390826111fc565b50608082015160048201805460a08501511515600160a01b026001600160a81b03199091166001600160a01b039093169290921791909117905560c0820151600582019061099190826111fc565b50506040516109a2915088906112bc565b6040519081900381208382529033907fb37102117f72d4f80ea90641358393efa0bea2f61fa4946f725911453946f5579060200160405180910390a35095945050505050565b6060600060015b600054811015610a705783604051602001610a0a91906112bc565b60408051601f198184030181528282528051602091820120600085815260018352929092209192610a3f9260030191016112ee565b6040516020818303038152906040528051906020012003610a685781610a648161114a565b9250505b6001016109ef565b5060008167ffffffffffffffff811115610a8c57610a8c610d3d565b604051908082528060200260200182016040528015610ac557816020015b610ab2610cf5565b815260200190600190039081610aaa5790505b509050600060015b6000548110156108855785604051602001610ae891906112bc565b60408051601f198184030181528282528051602091820120600085815260018352929092209192610b1d9260030191016112ee565b6040516020818303038152906040528051906020012003610ced57600160008281526020019081526020016000206040518060e0016040529081600082015481526020016001820154815260200160028201548152602001600382018054610b8490611171565b80601f0160208091040260200160405190810160405280929190818152602001828054610bb090611171565b8015610bfd5780601f10610bd257610100808354040283529160200191610bfd565b820191906000526020600020905b815481529060010190602001808311610be057829003601f168201915b505050918352505060048201546001600160a01b0381166020830152600160a01b900460ff1615156040820152600582018054606090920191610c3f90611171565b80601f0160208091040260200160405190810160405280929190818152602001828054610c6b90611171565b8015610cb85780601f10610c8d57610100808354040283529160200191610cb8565b820191906000526020600020905b815481529060010190602001808311610c9b57829003601f168201915b505050505081525050838381518110610cd357610cd36112d8565b60200260200101819052508180610ce99061114a565b9250505b600101610acd565b6040518060e001604052806000815260200160008152602001600081526020016060815260200160006001600160a01b03168152602001600015158152602001606081525090565b634e487b7160e01b600052604160045260246000fd5b600082601f830112610d6457600080fd5b813567ffffffffffffffff80821115610d7f57610d7f610d3d565b604051601f8301601f19908116603f01168101908282118183101715610da757610da7610d3d565b81604052838152866020858801011115610dc057600080fd5b836020870160208301376000602085830101528094505050505092915050565b8015158114610dee57600080fd5b50565b60008083601f840112610e0357600080fd5b50813567ffffffffffffffff811115610e1b57600080fd5b602083019150836020828501011115610e3357600080fd5b9250929050565b6001600160a01b0381168114610dee57600080fd5b600080600080600080600060c0888a031215610e6a57600080fd5b873567ffffffffffffffff80821115610e8257600080fd5b610e8e8b838c01610d53565b985060208a01359150610ea082610de0565b90965060408901359080821115610eb657600080fd5b50610ec38a828b01610df1565b9096509450506060880135610ed781610e3a565b92506080880135915060a0880135610eee81610e3a565b8091505092959891949750929550565b600060208284031215610f1057600080fd5b5035919050565b60005b83811015610f32578181015183820152602001610f1a565b50506000910152565b60008151808452610f53816020860160208601610f17565b601f01601f19169290920160200192915050565b8051825260208101516020830152604081015160408301526000606082015160e06060850152610f9a60e0850182610f3b565b905060018060a01b03608084015116608085015260a0830151151560a085015260c083015184820360c0860152610fd18282610f3b565b95945050505050565b602081526000610fed6020830184610f67565b9392505050565b60006020828403121561100657600080fd5b8135610fed81610e3a565b600060208083016020845280855180835260408601915060408160051b87010192506020870160005b8281101561106857603f19888603018452611056858351610f67565b9450928501929085019060010161103a565b5092979650505050505050565b6000806000806060858703121561108b57600080fd5b843567ffffffffffffffff808211156110a357600080fd5b6110af88838901610d53565b9550602087013591506110c182610de0565b909350604086013590808211156110d757600080fd5b506110e487828801610df1565b95989497509550505050565b60006020828403121561110257600080fd5b813567ffffffffffffffff81111561111957600080fd5b61112584828501610d53565b949350505050565b60006020828403121561113f57600080fd5b8151610fed81610de0565b60006001820161116a57634e487b7160e01b600052601160045260246000fd5b5060010190565b600181811c9082168061118557607f821691505b6020821081036111a557634e487b7160e01b600052602260045260246000fd5b50919050565b601f8211156111f7576000816000526020600020601f850160051c810160208610156111d45750805b601f850160051c820191505b818110156111f3578281556001016111e0565b5050505b505050565b815167ffffffffffffffff81111561121657611216610d3d565b61122a816112248454611171565b846111ab565b602080601f83116001811461125f57600084156112475750858301515b600019600386901b1c1916600185901b1785556111f3565b600085815260208120601f198616915b8281101561128e5788860151825594840194600190910190840161126f565b50858210156112ac5787850151600019600388901b60f8161c191681555b5050505050600190811b01905550565b600082516112ce818460208701610f17565b9190910192915050565b634e487b7160e01b600052603260045260246000fd5b60008083546112fc81611171565b60018281168015611314576001811461132957611358565b60ff1984168752821515830287019450611358565b8760005260208060002060005b8581101561134f5781548a820152908401908201611336565b50505082870194505b5092969550505050505056fea2646970667358221220ae60256fe435d680a18bf026e868d923d9d845a71adfb7cea30b9b45b53f13b264736f6c63430008170033",
  "devdoc": {
    "events": {
      "Attested(address,string,uint256)": {
        "params": {
          "attester": "The attesting account.",
          "recipient": "The recipient of the attestation.",
          "uid": "The UID the revoked attestation."
        }
      },
      "Revoked(string,address,uint256)": {
        "params": {
          "attester": "The attesting account.",
          "recipient": "The recipient of the attestation.",
          "uid": "The UID the revoked attestation."
        }
      }
    },
    "kind": "dev",
    "methods": {
      "attest(string,bool,string)": {
        "params": {
          "data": "The custom attestation data.",
          "recipient": "The recipient of the attestation.",
          "revocable": "Whether the attestation is revocable."
        },
        "returns": {
          "_0": "The UID of the new attestation."
        }
      },
      "constructor": {
        "details": "Creates a new SolAttest instance."
      },
      "getAttestation(uint256)": {
        "params": {
          "uid": "The UID of the attestation to retrieve."
        },
        "returns": {
          "_0": "The attestation data members."
        }
      }
    },
    "title": "SolAttest",
    "version": 1
  },
  "userdoc": {
    "events": {
      "Attested(address,string,uint256)": {
        "notice": "Emitted when an attestation has been made."
      },
      "Revoked(string,address,uint256)": {
        "notice": "Emitted when an attestation has been revoked."
      }
    },
    "kind": "user",
    "methods": {
      "attest(string,bool,string)": {
        "notice": "Attests to a specific schema."
      },
      "getAttestation(uint256)": {
        "notice": "Returns an existing attestation by UID."
      }
    },
    "notice": "The Solana Attestations protocol.",
    "version": 1
  },
  "storageLayout": {
    "storage": [
      {
        "astId": 66,
        "contract": "contracts/YourContract.sol:YourContract",
        "label": "lastUid",
        "offset": 0,
        "slot": "0",
        "type": "t_uint256"
      },
      {
        "astId": 71,
        "contract": "contracts/YourContract.sol:YourContract",
        "label": "_db",
        "offset": 0,
        "slot": "1",
        "type": "t_mapping(t_uint256,t_struct(Attestation)63_storage)"
      }
    ],
    "types": {
      "t_address": {
        "encoding": "inplace",
        "label": "address",
        "numberOfBytes": "20"
      },
      "t_bool": {
        "encoding": "inplace",
        "label": "bool",
        "numberOfBytes": "1"
      },
      "t_mapping(t_uint256,t_struct(Attestation)63_storage)": {
        "encoding": "mapping",
        "key": "t_uint256",
        "label": "mapping(uint256 => struct YourContract.Attestation)",
        "numberOfBytes": "32",
        "value": "t_struct(Attestation)63_storage"
      },
      "t_string_storage": {
        "encoding": "bytes",
        "label": "string",
        "numberOfBytes": "32"
      },
      "t_struct(Attestation)63_storage": {
        "encoding": "inplace",
        "label": "struct YourContract.Attestation",
        "members": [
          {
            "astId": 50,
            "contract": "contracts/YourContract.sol:YourContract",
            "label": "uid",
            "offset": 0,
            "slot": "0",
            "type": "t_uint256"
          },
          {
            "astId": 52,
            "contract": "contracts/YourContract.sol:YourContract",
            "label": "time",
            "offset": 0,
            "slot": "1",
            "type": "t_uint256"
          },
          {
            "astId": 54,
            "contract": "contracts/YourContract.sol:YourContract",
            "label": "revocationTime",
            "offset": 0,
            "slot": "2",
            "type": "t_uint256"
          },
          {
            "astId": 56,
            "contract": "contracts/YourContract.sol:YourContract",
            "label": "recipient",
            "offset": 0,
            "slot": "3",
            "type": "t_string_storage"
          },
          {
            "astId": 58,
            "contract": "contracts/YourContract.sol:YourContract",
            "label": "attester",
            "offset": 0,
            "slot": "4",
            "type": "t_address"
          },
          {
            "astId": 60,
            "contract": "contracts/YourContract.sol:YourContract",
            "label": "revocable",
            "offset": 20,
            "slot": "4",
            "type": "t_bool"
          },
          {
            "astId": 62,
            "contract": "contracts/YourContract.sol:YourContract",
            "label": "data",
            "offset": 0,
            "slot": "5",
            "type": "t_string_storage"
          }
        ],
        "numberOfBytes": "192"
      },
      "t_uint256": {
        "encoding": "inplace",
        "label": "uint256",
        "numberOfBytes": "32"
      }
    }
  }
}